S00E00007766785F73772E7372656378
S11300000C9478000C9495000C9495000C94950035
S11300100C9495000C9495000C9495000C94950008
S11300200C9495000C9417010C9495000C94950075
S11300300C9495000C9495000C9495000C949500E8
S11300400C94E6000C9495000C94791B0C94A71B5B
S11300500C9495000C9495000C9495000C949500C8
S11300600C9495000C949500084AD73B3BCE016E46
S113007084BCBFFDC12F3D6C74319ABD56833DDAFB
S11300803D00C77F11BED9E4BB4C3E916BAAAABE0A
S1130090000000803F05A84CCDB2D44EB93836A933
S11300A0020C50B9918688083CA6AAAA2ABE000070
S11300B000803F004E414E494E495459494E46CD69
S11300C0CCCC3D0AD7233C17B7D13877CC2B32950B
S11300D095E6241FB14F0A000020410000C84200E9
S11300E0401C4620BCBE4CCA1B0E5AAEC59D7400B3
S11300F011241FBECFEFD8E0DEBFCDBF11E0A0E0DA
S1130100B1E0E6EDFCE302C005900D92A83BB10717
S1130110D9F723E0A8EBB1E001C01D92A531B207E5
S1130120E1F70E9494010C94691E0C940000CF9393
S1130130DF93CDB7DEB727970FB6F894DEBF0FBEB7
S1130140CDBF9C838B837E836D834F838D819E8102
S113015099232CF18D819E8145970CF58F818430F4
S1130160F0F46F8180E00E940D1B1A8219820FC087
S113017089819A812B813C81820F931FFC018081AC
S11301800E941F1B89819A8101969A838983298100
S11301903A818D819E812817390754F300000000AD
S11301A027960FB6F894DEBF0FBECDBFDF91CF9177
S11301B00895CF93DF93CDB7DEB78CE00E943E1B4A
S11301C00E941C1B0000DF91CF9108951F920F9293
S11301D000905F000F9211242F933F934F935F93EE
S11301E06F937F938F939F93AF93BF93EF93FF93FB
S11301F0CF93DF93CDB7DEB70E94401286E490E040
S1130200FC0110820000DF91CF91FF91EF91BF912B
S1130210AF919F918F917F916F915F914F913F919A
S11302202F910F9000925F000F901F9018951F92CE
S11302300F9200905F000F9211248F939F93CF939E
S1130240DF93CDB7DEB78091BB018F5F8093BB0195
S11302508091BB018F3090F01092BB018091B80166
S11302609091B90101969093B9018093B80180915E
S1130270BA01882319F481E08093BA010000DF9168
S1130280CF919F918F910F9000925F000F901F90DC
S11302901895CF93DF93CDB7DEB7F89487E490E059
S11302A022E0FC01208386E490E0FC01108284E4D7
S11302B090E0FC01108285E490E0FC01108285E46A
S11302C090E025E430E0F90120812260FC012083E4
S11302D08EE690E02EE630E0F90120812160FC01F9
S11302E0208386E490E0FC01108280EB90E0FC0126
S11302F0108281EB90E0FC01108281EB90E021EB15
S113030030E0F90120812760FC01208380E790E040
S113031020E730E0F90120812160FC0120837894FA
S11303200000DF91CF910895CF93DF93CDB7DEB76F
S11303300E94A5010E9429088091BA018130D1F759
S11303400E94DF031092BA01F5CFCF93DF93CDB7AC
S1130350DEB7C254D1090FB6F894DEBF0FBECDBFCD
S113036082E08B8780E88EA78EA59B850FB6F894D4
S113037080936100909361000FBE0E94D90080E0D9
S113038091E09E838D838D819E8140E064E170E0E5
S11303900E94970085E191E098878F838F819885EB
S11303A041E064E170E00E94970080E091E09A8768
S11303B0898789859A8542E064E170E00E9497000C
S11303C08DEC9CECACECBDE38C879D87AE87BF873E
S11303D020E030E04AE754E46C857D858E859F8576
S11303E00E94BB19DC01CB018CA39DA3AEA3BFA3C8
S11303F020E030E040E85FE36CA17DA18EA19FA1E5
S11304000E94E41788232CF481E090E099A788A740
S11304103FC020E03FEF4FE757E46CA17DA18EA1E0
S11304209FA10E94AE1918164CF520E030E040E27E
S113043051E46C857D858E859F850E94BB19DC0106
S1130440CB01BC01CD010E946718DC01CB0199A747
S113045088A70FC084E690E09BA78AA78AA59BA5DE
S11304600197F1F79BA78AA788A599A5019799A752
S113047088A788A599A5892B69F714C06CA17DA1CB
S11304808EA19FA10E946718DC01CB0199A788A7C0
S113049088A599A59DA78CA78CA59DA50197F1F783
S11304A09DA78CA70E9449018DEC9CECACECBDE3AC
S11304B08E8B9F8BA88FB98F20E030E04AE754E4FD
S11304C06E897F89888D998D0E94BB19DC01CB01CF
S11304D08A8F9B8FAC8FBD8F20E030E040E85FE3D4
S11304E06A8D7B8D8C8D9D8D0E94E41788232CF45E
S11304F081E090E09F8F8E8F3FC020E03FEF4FE779
S113050057E46A8D7B8D8C8D9D8D0E94AE191816D3
S11305104CF520E030E040E251E46E897F89888D1B
S1130520998D0E94BB19DC01CB01BC01CD010E9455
S11305306718DC01CB019F8F8E8F0FC084E690E09B
S113054099A388A388A199A10197F1F799A388A3F6
S11305508E8D9F8D01979F8F8E8F8E8D9F8D892B72
S113056069F714C06A8D7B8D8C8D9D8D0E946718F0
S1130570DC01CB019F8F8E8F8E8D9F8D9BA38AA3D1
S11305808AA19BA10197F1F79BA38AA30E94D2079A
S1130590882361F08AE291E09D8B8C8B8C899D8904
S11305A041E064E170E00E949700FFCF8AE999E995
S11305B0A9E1BFE3888B998BAA8BBB8B20E030E049
S11305C04AE754E4688979898A899B890E94BB191E
S11305D0DC01CB0189AF9AAFABAFBCAF20E030E018
S11305E040E85FE369AD7AAD8BAD9CAD0E94E41742
S11305F088232CF481E090E09EAF8DAF49C020E0C9
S11306003FEF4FE757E469AD7AAD8BAD9CAD0E94E7
S1130610AE1918169CF520E030E040E251E46889F8
S113062079898A899B890E94BB19DC01CB01BC01B1
S1130630CD010E946718DC01CB019EAF8DAF19C0BC
S113064024E630E0CE01CF96FC0131832083CE0135
S1130650CF96FC01808191810197F1F79E01215C85
S11306603F4FF901918380838DAD9EAD01979EAF7D
S11306708DAF8DAD9EAD892B19F720C069AD7AADD4
S11306808BAD9CAD0E946718DC01CB019EAF8DAF92
S1130690CE018F5B9F4F2DAD3EADFC013183208396
S11306A0CE018F5B9F4FFC01808191810197F1F70F
S11306B09E012F5B3F4FF901918380830E94460E78
S11306C08DEC9CECACECBDE389839A83AB83BC8357
S11306D020E030E04AE754E469817A818B819C818F
S11306E00E94BB19DC01CB018FA798ABA9ABBAABB5
S11306F020E030E040E85FE36FA578A989A99AA9D2
S11307000E94E41788232CF481E090E09CAB8BAB2F
S11307103FC020E03FEF4FE757E46FA578A989A9D0
S11307209AA90E94AE1918164CF520E030E040E278
S113073051E469817A818B819C810E94BB19DC011F
S1130740CB01BC01CD010E946718DC01CB019CAB3D
S11307508BAB0FC084E690E09EAB8DAB8DA99EA9B8
S11307600197F1F79EAB8DAB8BA99CA901979CAB2C
S11307708BAB8BA99CA9892B69F714C06FA578A9A9
S113078089A99AA90E946718DC01CB019CAB8BABA9
S11307908BA99CA998AF8FAB8FA998AD0197F1F75E
S11307A098AF8FAB0E9464110000CE5BDF4F0FB691
S11307B0F894DEBF0FBECDBFDF91CF910895CF93E4
S11307C0DF9300D0CDB7DEB780916B028133C1F4E3
S11307D080918A028032A1F480918B02803281F46C
S11307E08FE391E09A83898389819A8141E064E16E
S11307F070E00E9497000E94D207882389F706C000
S11308008091A602882311F40E9484150E940E048C
S113081000000F900F90DF91CF910895CF93DF9355
S1130820CDB7DEB7CC57D1090FB6F894DEBF0FBEF3
S1130830CDBF84E1E6E9F1E0DE015F9601900D921F
S11308408A95E1F784E1E6E9F1E0DE01D3960190CF
S11308500D928A95E1F7CE01895B9F4F24E1E6E989
S1130860F1E0DC0101900D922A95E1F7CE01855A61
S11308709F4F24E1E6E9F1E0DC0101900D922A9515
S1130880E1F780917702803209F066C08091B80167
S11308909091B9019C01CE0181599F4F4AE050E0EB
S11308A0BC01C9010E94801C84E58F8F84E588A364
S11308B086E489A386E48AA38AE38BA31A82198235
S11308C023C09E0121593F4F89819A81820F931F32
S11308D0FC0180818823E9F089819A810596AE0123
S11308E041595F4F29813A81240F351FF901408115
S11308F09E01215E3F4F820F931FFC01408389813B
S11309009A8101969A83898389819A810797CCF287
S113091001C0000084E591E09C8F8B8F1C821B82B8
S113092016C08B819C812B8D3C8D820F931FFC0103
S113093040819E01255A3F4F8B819C81820F931FDA
S1130940FC0140838B819C8101969C838B838B81EA
S11309509C81449734F39CC280916B02813309F4E7
S11309609AC08091B8019091B9019C01CE018A5836
S11309709F4F4AE050E0BC01C9010E94801C84E5FD
S11309808F8F84E588A386E489A386E48AA38AE317
S11309908BA31E821D8223C09E012A583F4F8D8146
S11309A09E81820F931FFC0180818823E9F08D8151
S11309B09E810596AE014A585F4F2D813E81240FDA
S11309C0351FF90140819E01215E3F4F820F931F25
S11309D0FC0140838D819E8101969E838D838D8150
S11309E09E810797CCF201C00000CE01895B9F4F26
S11309F025E5FC012083CE01895B9F4F24E5FC01A2
S1130A002183CE01895B9F4F23E4FC012283CE0125
S1130A10895B9F4F2AE3FC01238318861F8215C03C
S1130A208F81988504962F81388529583D4FF90187
S1130A3040819E01295B3F4F820F931FFC0140833D
S1130A408F819885019698878F838F8198850997E0
S1130A503CF389E691E09E8F8D8F1A86198616C025
S1130A6089859A852D8D3E8D820F931FFC014081CF
S1130A709E01255A3F4F89859A85820F931FFC0159
S1130A80408389859A8501969A87898789859A857D
S1130A90449734F3FDC180916B02813309F0F8C1AE
S1130AA00E944E0A1C861B8614C08B859C858F561B
S1130AB09D4FFC0140819E01215E3F4F8B859C85AB
S1130AC0820F931FFC0140838B859C8501969C8734
S1130AD08B878B859C850B9744F38091A602805D60
S1130AE08AAB8AE389AB85E688AB84E68FA78FE679
S1130AF08EA78DE48DA71E861D8614C08D859E85C8
S1130B00865B9D4FFC0140819E012D5C3F4F8D858E
S1130B109E85820F931FFC0140838D859E850196DF
S1130B209E878D878D859E850A9744F38091A602C2
S1130B30813009F0ECC088E48FAF24E4CE01805CFE
S1130B409F4FFC012083CE018F5B9F4F2FE4FC015C
S1130B502083CE018E5B9F4F20E5FC012083CE01D4
S1130B608D5B9F4F2AE3FC01208320919E02CE01DE
S1130B708C5B9F4FFC01208320919F02CE018B5BF5
S1130B809F4FFC0120832091A002CE018A5B9F4FDE
S1130B90FC012083CE01895B9F4F25E5FC01208366
S1130BA0CE01895B9F4F24E5FC012183CE01895B43
S1130BB09F4F23E4FC012283CE01895B9F4F2AE3EC
S1130BC0FC012383188A1F8615C08F859889049693
S1130BD02F85388929583D4FF90140819E01295BB1
S1130BE03F4F820F931FFC0140838F8598890196A4
S1130BF0988B8F878F85988909973CF320919D0264
S1130C00CE01895B9F4FFC01238B20919C02CE0176
S1130C10895B9F4FFC01228BCE01895B9F4F2AE3A6
S1130C20FC01218BCE01895B9F4F26E5FC01208BC3
S1130C30CE01895B9F4F23E5FC012787CE01895BA9
S1130C409F4F23E2FC012687CE01855A9F4F26E55C
S1130C50FC012083CE01855A9F4F25E6FC012183A8
S1130C60CE01855A9F4F2CE6FC012283CE01855A82
S1130C709F4F2AE3FC0123831A8A198A15C08989A4
S1130C809A89049629893A8926573D4FF90140816A
S1130C909E01255A3F4F820F931FFC01408389898F
S1130CA09A8901969A8B898B89899A8906973CF34C
S1130CB0CE01855A9F4F21E4FC012387CE01855A3A
S1130CC09F4F2CE6FC012487CE01855A9F4F24E7D1
S1130CD0FC0125871C8A1B8A15C08B899C890E966A
S1130CE02B893C89215A3D4FF90140819E01255AA7
S1130CF03F4F820F931FFC0140838B899C8901968F
S1130D009C8B8B8B8B899C8906973CF3C1C080910B
S1130D10A502882F90E08130910589F082309105F9
S1130D20D1F0892B21F5CE01C3960F9625E0EEE78D
S1130D30F1E0DC0101900D922A95E1F724C0CE0187
S1130D40C3960F9625E0E4E8F1E0DC0101900D92F2
S1130D502A95E1F718C0CE01C3960F9625E0EAE87C
S1130D60F1E0DC0101900D922A95E1F70CC0CE016F
S1130D70C3960F9625E0E0E9F1E0DC0101900D92C5
S1130D802A95E1F70000CE01895B9F4F2DE4FC0119
S1130D90208BCE01895B9F4F25E6FC01218BCE0180
S1130DA0895B9F4F2DE6FC01228B8091B10220E3E9
S1130DB0280FCE01895B9F4FFC01238B1E8A1D8A5D
S1130DC014C08D899E898E5F9C4FFC0140819E01D9
S1130DD0295B3F4F8D899E89820F931FFC014083BD
S1130DE08D899E8901969E8B8D8B8D899E8909970D
S1130DF044F3188E1F8A14C08F89988D89559D4F8E
S1130E00FC0140819E01255A3F4F8F89988D820FA6
S1130E10931FFC0140838F89988D0196988F8F8B47
S1130E208F89988D0A9744F3CE01855A9F4F24E405
S1130E30FC012287CE01855A9F4F29E6FC012387B6
S1130E40CE01855A9F4F23E7FC012487CE01855AA2
S1130E509F4F24E7FC0125871A8E198E15C0898DB2
S1130E609A8D0E96298D3A8D235F3C4FF90140816E
S1130E709E01255A3F4F820F931FFC014083898DA9
S1130E809A8D01969A8F898F898D9A8D06973CF356
S1130E90CE014F9640E064E170E00E949700CE01DD
S1130EA0C39641E064E170E00E949700CE01895B43
S1130EB09F4F42E064E170E00E949700CE01855AA2
S1130EC09F4F43E064E170E00E9497000000C45823
S1130ED0DF4F0FB6F894DEBF0FBECDBFDF91CF91C9
S1130EE00895CF93DF93CDB7DEB745E050E060E0DF
S1130EF070E08CEB91E00E94701C4EE250E060E2E6
S1130F0070E081EC91E00E94701C4AE050E060E2E5
S1130F1070E080E892E00E94701C80E280935802A6
S1130F204BE050E060E270E08CE692E00E94701CBE
S1130F3080E28093660280E280936B0242E050E09C
S1130F4060E270E08CE992E00E94701C43E050E0A3
S1130F5060E270E08EE992E00E94701C47E050E08D
S1130F6060E270E08FE592E00E94701C4BE050E07C
S1130F7060E270E081E992E00E94701C4AE050E077
S1130F8060E270E08AE492E00E94701C46E050E067
S1130F9060E270E089E592E00E94701C0000DF913D
S1130FA0CF910895CF93DF93CDB7DEB7F89489E15D
S1130FB090E00E94D11B49E050E060E270E087E7D6
S1130FC092E00E94701C47E050E060E270E08AE822
S1130FD092E00E94701C0E947107109254021092B9
S1130FE05502109256021092570210926702109204
S1130FF068021092690210926A021092A102109281
S1131000A2021092A3021092A402789480E0DF91CD
S1131010CF910895CF93DF9300D000D0CDB7DEB742
S11310209C838B830E94EA1B9A83898389819A819A
S113103088279170892BB1F729818B819C81FC01D0
S1131040208300000F900F900F900F90DF91CF91AD
S11310500895CF93DF93CDB7DEB76A970FB6F894B0
S1131060DEBF0FBECDBFCE014A960E940A088A8D0C
S11310708432C9F71A8219820BC089819A818454F7
S11310809E4F0E940A0889819A8101969A838983D6
S113109089819A8105978CF3CE014A960E940A08A9
S11310A01C821B826BEA71E08CEB91E00E94771C3E
S11310B0892B09F0ABC11C821B820BC08B819C81E4
S11310C08F539E4F0E940A088B819C8101969C83BA
S11310D08B838B819C818E978CF31E821D828D81E4
S11310E09E818F539E4FFC0180818C32F1F01886D3
S11310F01F8216C08D819E819C012F5F3F4F3E83CE
S11311002D838F539E4FFC0120818F8198858958B0
S11311109D4FFC0120838F819885019698878F834A
S11311208F819885099734F305C08D819E8101963E
S11311309E838D838D819E8101969E838D838D8177
S11311409E818F539E4FFC0180818C32F1F01A8670
S1131150198616C08D819E819C012F5F3F4F3E836F
S11311602D838F539E4FFC01208189859A85805859
S11311709D4FFC01208389859A8501969A878987EA
S113118089859A850A9734F305C08D819E810196DD
S11311909E838D838D819E8101969E838D838D8117
S11311A09E818F539E4FFC0180818C3271F08D8122
S11311B09E819C012F5F3F4F3E832D838F539E4F13
S11311C0FC0180818093580205C08D819E81019627
S11311D09E838D838D819E8101969E838D838D81D7
S11311E09E818F539E4FFC0180818C32F1F01C86CE
S11311F01B8616C08D819E819C012F5F3F4F3E83CD
S11312002D838F539E4FFC0120818B859C858459AF
S11312109D4FFC0120838B859C8501969C878B8741
S11312208B859C850B9734F305C08D819E81019637
S11312309E838D838D819E8101969E838D838D8176
S11312409E818F539E4FFC0180818C32F9F01E8663
S11312501D8616C08D819E819C012F5F3F4F3E836A
S11312602D838F539E4FFC0120818D859E858A5945
S11312709D4FFC0120838D859E8501969E878D87D9
S11312808D859E85181619062CF705C08D819E81C3
S113129001969E838D838D819E8101969E838D838D
S11312A08D819E818F539E4FFC0180818C32F9F099
S11312B0188A1F8616C08D819E819C012F5F3F4F27
S11312C03E832D838F539E4FFC0120818F85988907
S11312D085599D4FFC0120838F8598890196988BB1
S11312E08F878F859889181619062CF705C08D816C
S11312F09E8101969E838D838D819E8101969E831E
S11313008D838D819E818F539E4FFC0180818C3211
S1131310F1F01A8A198A16C08D819E819C012F5F73
S11313203F4F3E832D838F539E4FFC01208189893B
S11313309A8984569D4FFC01208389899A89019654
S11313409A8B898B89899A89029734F305C08D8198
S11313509E8101969E838D838D819E8101969E83BD
S11313608D838D819E818F539E4FFC0180818C32B1
S1131370F1F01C8A1B8A16C08D819E819C012F5F0F
S11313803F4F3E832D838F539E4FFC0120818B89D9
S11313909C8982569D4FFC0120838B899C890196F0
S11313A09C8B8B8B8B899C89039734F305C08D812F
S11313B09E8101969E838D838D819E8101969E835D
S11313C08D831A8E1E8A1D8ACE014A960E940A08AF
S11313D0CE014A960E940A0810C08D899E899C01FC
S11313E02F5F3F4F3E8B2D8B2A8D815A9D4FFC01E1
S11313F02083CE014A960E940A088A8D8C3209F411
S113140043C08D899E89079744F33EC061EB71E028
S11314108CEB91E00E94771C892BB1F586E08F8BD1
S11314200AC0CE014A960E940A088A8D8C32C9F7F6
S11314308F8981508F8B8F89882399F747E050E0FB
S113144060E270E08AE892E00E94701C198E188EA7
S1131450CE014A960E940A0810C0888D998D9C017D
S11314602F5F3F4F398F288F2A8D86579D4FFC0160
S11314702083CE014A960E940A088A8D8C3221F07C
S1131480888D998D07974CF300006A960FB6F894EF
S1131490DEBF0FBECDBFDF91CF910895CF92DF9213
S11314A0EF92FF92CF93DF93CDB7DEB7A8970FB635
S11314B0F894DEBF0FBECDBF1D821E821F82188628
S11314C019861A861B861C8629E0CE014796FC01E4
S11314D0322F11923A95E9F71A82198215C089813F
S11314E09A81029680589D4FFC0140819E01295E9D
S11314F03F4F89819A81820F931FFC014083898128
S11315009A8101969A83898389819A8108973CF309
S1131510CE0147960E946C1CDC01CB0189879A8717
S1131520AB87BC8780918102882F90E0C097092EF9
S1131530000CAA0BBB0BBC01CD010E949818DC0166
S1131540CB019C01AD016D817E818F8198850E94C4
S11315500617DC01CB018D839E83AF83B88780910E
S11315608002882F90E0C097092E000CAA0BBB0BB9
S1131570BC01CD010E949818DC01CB0120E030E0D1
S113158040E251E4BC01CD010E94BB19DC01CB0156
S11315909C01AD016D817E818F8198850E94061723
S11315A0DC01CB018D839E83AF83B88720E030E0DC
S11315B040E752E469857A858B859C850E94EE1705
S11315C0DC01CB012D813E814F815885BC01CD01C9
S11315D00E940617DC01CB018093540290935502BC
S11315E0A0935602B09357028091540290915502F1
S11315F0A0915602B0915702BC01CD010E94671818
S1131600DC01CB019E878D87C0905402D090550297
S1131610E0905602F09057028D859E85CC01A0E0A3
S1131620B0E0BC01CD010E949618DC01CB019C0105
S1131630AD01C701B6010E940517DC01CB018F87FC
S1131640988BA98BBA8B20E030E543EC57E46F8587
S1131650788989899A890E94BB19DC01CB01BC0174
S1131660CD010E946718DC01CB018B8B9C8BAD8B69
S1131670BE8B8D859E859C01ADECBCEC0E943E1C0E
S1131680AC015695479556954795569547959A01B9
S1131690ADECBCEC0E943E1C96958795969587957B
S11316A096958795880F991F9C01220F331F220F4F
S11316B0331F820F931F9A01281B390BC901805DC8
S11316C0809392024D855E859A01ADECBCEC0E943C
S11316D03E1C969587959695879596958795880F40
S11316E0991F9C01220F331F220F331F820F931F58
S11316F0FA01E81BF90BCF01805D809393028EE21F
S1131700809394028B899C89AD89BE8920E137E25C
S113171040E050E0BC01CD010E941C1CDA01C9016B
S11317202AE030E040E050E0BC01CD010E941C1CE6
S1131730DC01CB01805D809395028B899C89AD8906
S1131740BE8928EE33E040E050E0BC01CD010E94A8
S11317501C1CDA01C9012AE030E040E050E0BC0181
S1131760CD010E941C1CDC01CB01805D809396029C
S11317708B899C89AD89BE8924E630E040E050E045
S1131780BC01CD010E941C1CDA01C9012AE030E031
S113179040E050E0BC01CD010E941C1CDC01CB01E7
S11317A0805D809397028B899C89AD89BE892AE0EC
S11317B030E040E050E0BC01CD010E941C1CDA0185
S11317C0C9012AE030E040E050E0BC01CD010E94B4
S11317D01C1CDC01CB01805D809398028B899C8961
S11317E0AD89BE892AE030E040E050E0BC01CD0183
S11317F00E941C1CDC01CB01805D809399028091C6
S113180058028335A9F48DE28093910280915402A9
S113181090915502A0915602B0915702B05880930E
S1131820540290935502A0935602B093570203C0FA
S11318308BE2809391021D821E821F821886198674
S11318401A861B861C8629E0CE018096FC01322F65
S113185011923A95E9F71C821B8215C08B819C81F9
S1131860039684599D4FFC0140819E01205E3F4FA9
S11318708B819C81820F931FFC0140838B819C810F
S113188001969C838B838B819C8108973CF3CE01CA
S113189080960E946C1CDC01CB0189879A87AB87F8
S11318A0BC8780916E02882F90E0C097092E000CAF
S11318B0AA0BBB0BBC01CD010E949818DC01CB0123
S11318C09C01AD016D817E818F8198850E940617F0
S11318D0DC01CB018D839E83AF83B88780916D0239
S11318E0882F90E0C097092E000CAA0BBB0BBC01FB
S11318F0CD010E949818DC01CB0120E030E040E2E9
S113190051E4BC01CD010E94BB19DC01CB019C0157
S1131910AD016D817E818F8198850E940617DC015F
S1131920CB018D839E83AF83B88780916C02882F0F
S113193090E0C097092E000CAA0BBB0BBC01CD0193
S11319400E949818DC01CB0120E030E048EC52E41E
S1131950BC01CD010E94BB19DC01CB019C01AD018E
S11319606D817E818F8198850E940617DC01CB01F1
S11319708D839E83AF83B88720E030E040E752E454
S113198069857A858B859C850E94EE17DC01CB01E5
S11319902D813E814F815885BC01CD010E940617DF
S11319A0DC01CB018093670290936802A0936902E3
S11319B0B0936A028091670290916802A0916902D3
S11319C0B0916A02BC01CD010E946718DC01CB0111
S11319D09E878D87C0906702D0906802E09069026C
S11319E0F0906A028D859E85CC01A0E0B0E0BC0138
S11319F0CD010E949618DC01CB019C01AD01C70109
S1131A00B6010E940517DC01CB018F87988BA98B47
S1131A10BA8B20E030E543EC57E46F8578898989F7
S1131A209A890E94BB19DC01CB01BC01CD010E9443
S1131A306718DC01CB018B8B9C8BAD8BBE8B8D85AA
S1131A409E8596958795969587959C01ABE7B4E11D
S1131A500E943E1CAC01569547959A01ADECBCEC36
S1131A600E943E1C969587959695879596958795A1
S1131A70880F991F9C01220F331F220F331F820FDF
S1131A80931F9A01281B390BC901805D80934B0277
S1131A908D859E859C01ADECBCEC0E943E1CAC0186
S1131AA05695479556954795569547959A01ADECA9
S1131AB0BCEC0E943E1C96958795969587959695C5
S1131AC08795880F991F9C01220F331F220F331F04
S1131AD0820F931FFA01E81BF90BCF01805D8093FD
S1131AE04C024D855E859A01ADECBCEC0E943E1C17
S1131AF0969587959695879596958795880F991FBE
S1131B009C01220F331F220F331F820F931F9A0150
S1131B10281B390BC901805D80934D028EE28093AE
S1131B204E028B899C89AD89BE8920E137E240E071
S1131B3050E0BC01CD010E941C1CDA01C9012AE05D
S1131B4030E040E050E0BC01CD010E941C1CDC01EF
S1131B50CB01805D80934F028B899C89AD89BE89BE
S1131B6028EE33E040E050E0BC01CD010E941C1C93
S1131B70DA01C9012AE030E040E050E0BC01CD01C7
S1131B800E941C1CDC01CB01805D809350028B8978
S1131B909C89AD89BE8924E630E040E050E0BC0178
S1131BA0CD010E941C1CDA01C9012AE030E040E0AA
S1131BB050E0BC01CD010E941C1CDC01CB01805D06
S1131BC0809351028B899C89AD89BE892AE030E0DB
S1131BD040E050E0BC01CD010E941C1CDA01C901A7
S1131BE02AE030E040E050E0BC01CD010E941C1C22
S1131BF0DC01CB01805D809352028B899C89AD8985
S1131C00BE892AE030E040E050E0BC01CD010E94F2
S1131C101C1CDC01CB01805D80935302809158022F
S1131C208335A9F48DE280934A0280915402909105
S1131C305502A0915602B0915702B05880935402B5
S1131C4090935502A0935602B093570203C08BE2BF
S1131C5080934A028FE592E00E946C1CDC01CB0168
S1131C608093A1029093A202A093A302B093A40232
S1131C700000A8960FB6F894DEBF0FBECDBFDF916B
S1131C80CF91FF90EF90DF90CF900895CF93DF93A3
S1131C90CDB7DEB780E0DF91CF910895CF93DF9386
S1131CA000D000D01F92CDB7DEB789837B836A83CF
S1131CB05D834C838A819B81FC0110821182128294
S1131CC013828C819D81FC01108211821282138205
S1131CD000000F900F900F900F900F90DF91CF9115
S1131CE00895CF93DF931F92CDB7DEB789830000A9
S1131CF00F90DF91CF9108950F931F93CF93DF93AC
S1131D00CDB7DEB760970FB6F894DEBF0FBECDBF78
S1131D106B877C878D879E87588B4F8720E030E0C8
S1131D20A9016B857C858D859E850E94E417882397
S1131D307CF48F8598892DE2FC0120838B859C851A
S1131D40AD85BE85B0588B879C87AD87BE8705C09F
S1131D508F8598892BE2FC0120836B857C858D859A
S1131D609E850E946718DC01CB019A83898389814F
S1131D709A81CC01A0E0B0E0BC01CD010E9496188C
S1131D80DC01CB019C01AD016B857C858D859E8535
S1131D900E940517DC01CB018B839C83AD83BE833A
S1131DA020E030E543EC57E46B817C818D819E819A
S1131DB00E94BB19DC01CB01BC01CD010E94671854
S1131DC0DC01CB018F839887A987BA878F8598898F
S1131DD0FC01319689819A819C01ADECBCEC0E9496
S1131DE03E1CAC0156954795569547955695479593
S1131DF09A01ADECBCEC0E943E1C96958795969595
S1131E00879596958795880F991F9C01220F331FFC
S1131E10220F331F820F931F9A01281B390BC9010C
S1131E20805D80838F859889FC01329649815A812F
S1131E309A01ADECBCEC0E943E1C96958795969554
S1131E40879596958795880F991F9C01220F331FBC
S1131E50220F331F820F931F9A01281B390BC901CC
S1131E60805D80838F85988903962EE2FC01208310
S1131E708F8598898C010C5F1F4F8F819885A98568
S1131E80BA8520E137E240E050E0BC01CD010E9478
S1131E901C1CDA01C9012AE030E040E050E0BC013A
S1131EA0CD010E941C1CDC01CB01805DF801808304
S1131EB08F8598898C010B5F1F4F8F819885A98529
S1131EC0BA8528EE33E040E050E0BC01CD010E9429
S1131ED01C1CDA01C9012AE030E040E050E0BC01FA
S1131EE0CD010E941C1CDC01CB01805DF8018083C4
S1131EF08F8598898C010A5F1F4F8F819885A985EA
S1131F00BA8524E630E040E050E0BC01CD010E94F7
S1131F101C1CDA01C9012AE030E040E050E0BC01B9
S1131F20CD010E941C1CDC01CB01805DF801808383
S1131F308F8598898C01095F1F4F8F819885A985AA
S1131F40BA852AE030E040E050E0BC01CD010E94B7
S1131F501C1CDA01C9012AE030E040E050E0BC0179
S1131F60CD010E941C1CDC01CB01805DF801808343
S1131F708F8598898C01085F1F4F8F819885A9856B
S1131F80BA852AE030E040E050E0BC01CD010E9477
S1131F901C1CDC01CB01805DF8018083000060968D
S1131FA00FB6F894DEBF0FBECDBFDF91CF911F9166
S1131FB00F9108950F931F93CF93DF93CDB7DEB79F
S1131FC060970FB6F894DEBF0FBECDBF6B877C87DA
S1131FD08D879E87588B4F8720E030E0A9016B8561
S1131FE07C858D859E850E94E41788237CF48F85EB
S1131FF098892DE2FC0120838B859C85AD85BE8567
S1132000B0588B879C87AD87BE8705C08F8598891C
S11320102BE2FC0120836B857C858D859E850E9447
S11320206718DC01CB019A83898389819A81CC0169
S1132030A0E0B0E0BC01CD010E949618DC01CB0108
S11320409C01AD016B857C858D859E850E9405175D
S1132050DC01CB018B839C83AD83BE8320E030E520
S113206043EC57E46B817C818D819E810E94BB1976
S1132070DC01CB01BC01CD010E946718DC01CB015E
S11320808F839887A987BA878F859889FC013196B1
S113209089819A8196958795969587959C01ABE75A
S11320A0B4E10E943E1CAC01569547959A01ADECF3
S11320B0BCEC0E943E1C96958795969587959695BF
S11320C08795880F991F9C01220F331F220F331FFE
S11320D0820F931F9A01281B390BC901805D8083ED
S11320E08F859889FC01329689819A819C01ADEC97
S11320F0BCEC0E943E1CAC015695479556954795FD
S1132100569547959A01ADECBCEC0E943E1C969501
S113211087959695879596958795880F991F9C0125
S1132120220F331F220F331F820F931F9A01281B84
S1132130390BC901805D80838F859889FC013396B2
S113214049815A819A01ADECBCEC0E943E1C9695E3
S113215087959695879596958795880F991F9C01E5
S1132160220F331F220F331F820F931F9A01281B44
S1132170390BC901805D80838F85988904962EE28E
S1132180FC0120838F8598898C010B5F1F4F8F8101
S11321909885A985BA8520E137E240E050E0BC018A
S11321A0CD010E941C1CDA01C9012AE030E040E0A4
S11321B050E0BC01CD010E941C1CDC01CB01805D00
S11321C0F80180838F8598898C010A5F1F4F8F8166
S11321D09885A985BA8528EE33E040E050E0BC013B
S11321E0CD010E941C1CDA01C9012AE030E040E064
S11321F050E0BC01CD010E941C1CDC01CB01805DC0
S1132200F80180838F8598898C01095F1F4F8F8126
S11322109885A985BA8524E630E040E050E0BC0109
S1132220CD010E941C1CDA01C9012AE030E040E023
S113223050E0BC01CD010E941C1CDC01CB01805D7F
S1132240F80180838F8598898C01085F1F4F8F81E7
S11322509885A985BA852AE030E040E050E0BC01C9
S1132260CD010E941C1CDA01C9012AE030E040E0E3
S113227050E0BC01CD010E941C1CDC01CB01805D3F
S1132280F80180838F8598898C01075F1F4F8F81A8
S11322909885A985BA852AE030E040E050E0BC0189
S11322A0CD010E941C1CDC01CB01805DF801808300
S11322B0000060960FB6F894DEBF0FBECDBFDF916D
S11322C0CF911F910F910895CF93DF9300D000D049
S11322D0CDB7DEB71A8219821CC089819A81880F12
S11322E0991F880F991F9C012E543D4F89819A8113
S11322F0880F991F880F991F86529D4FE981A90164
S1132300BC018E2F0E944E0E89819A8101969A8378
S1132310898389819A810A9704F31092A602109204
S1132320A5021092B1028091B102882F90E0880F2B
S1132330991F880F991F8E549D4FFC0180819181B4
S1132340A281B38142E053E0BC01CD010E947C0E26
S11323508091B102882F90E0880F991F880F991FF0
S113236086529D4FFC0180819181A281B38147EA0D
S113237052E0BC01CD010E94DA0F46E050E060E279
S113238070E08DE093E00E94701C1092F0011092B6
S1132390EF011C821B8220C08B819C81880F991FB6
S11323A08F509E4FFC01118210828B819C8187503B
S11323B09E4FFC0110828B819C8183509E4FFC01B7
S11323C010828B819C818F5F9D4FFC0110828B81D9
S11323D09C8101969C838B838B819C810497E4F27E
S11323E087E290E027E230E0F9012081277FFC01B9
S11323F0208387E290E027E230E0F90120812B7FFF
S1132400FC01208387E290E027E230E0F90120819B
S11324102D7FFC01208387E290E027E230E0F90180
S113242020812E7FFC01208388E290E028E230E0C6
S1132430F90120812860FC01208388E290E028E2F1
S113244030E0F90120812460FC01208388E290E0DF
S113245028E230E0F90120812260FC01208388E237
S113246090E028E230E0F90120812160FC01208322
S113247000000F900F900F900F90DF91CF9108956F
S1132480CF93DF9300D000D0CDB7DEB71A82198284
S113249084C089819A818F5F9D4FFC01208189814D
S11324A09A8183509E4FFC0120838981682F86E2A4
S11324B090E00E945F14882309F43FC089819A81C7
S11324C0880F991F8F509E4FFC01808191819C0140
S11324D02F5F3F4F89819A81880F991F8F509E4F9C
S11324E0FC013183208389819A8187509E4FFC01AE
S11324F0108289819A81880F991F8F509E4FFC0109
S1132500808191818436910508F442C089819A8141
S11325108F5F9D4F21E0FC01208389819A81880F80
S1132520991F8F509E4FFC011182108289819A81DC
S113253087509E4FFC0110822BC089819A8187505D
S11325409E4FFC01808121E0280F89819A81875068
S11325509E4FFC01208389819A8187509E4FFC0104
S113256080818E31A8F089819A818F5F9D4FFC0113
S1132570108289819A81880F991F8F509E4FFC0188
S11325801182108289819A8187509E4FFC011082AA
S113259089819A8101969A83898389819A81049792
S11325A00CF477CF80910102882359F48091FD01C6
S11325B0882339F09091A60281E089278093A602AE
S11325C076C18091A602813009F43FC08091020255
S11325D08823D9F58091FE018823B9F18091B10255
S11325E0882F90E001962AE030E0B9010E94081C8F
S11325F08093B1028091B102882F90E0880F991FD7
S1132600880F991F8E549D4FFC0180819181A28176
S1132610B38142E053E0BC01CD010E947C0E809165
S1132620B102882F90E0880F991F880F991F865256
S11326309D4FFC0180819181A281B38147EA52E0E0
S1132640BC01CD010E94DA0F32C18091A602813013
S1132650A9F080910302882389F48091FF018823E3
S113266069F08091A502882F90E0019623E030E084
S1132670B9010E94081C8093A50219C18091A60289
S1132680813009F414C180910402882309F00FC138
S113269080910002882309F40AC18091A502882F41
S11326A090E08130910509F464C08230910509F409
S11326B0ADC0892B09F0FBC08091B102282F30E016
S11326C08091540290915502A0915602B091570204
S11326D0220F331F220F331F2E543D4FF9018083E5
S11326E09183A283B3838091B102282F30E080913B
S11326F0670290916802A0916902B0916A02220F68
S1132700331F220F331F26523D4FF90180839183DB
S1132710A283B3838091B102882F90E0880F991F20
S1132720880F991F8E549D4FFC0180819181A28155
S1132730B38142E053E0BC01CD010E947C0E809144
S1132740B102882F90E0880F991F880F991F865235
S11327509D4FFC0180819181A281B38147EA52E0BF
S1132760BC01CD010E94DA0F8091B1020E94710E6A
S11327709EC08091B102882F90E0880F991F880F26
S1132780991F8E549D4FFC01108211821282138274
S11327908091B102882F90E0880F991F880F991FAC
S11327A086529D4FFC011082118212821382809105
S11327B0B102882F90E0880F991F880F991F8E54BB
S11327C09D4FFC0180819181A281B38142E053E05D
S11327D0BC01CD010E947C0E8091B102882F90E053
S11327E0880F991F880F991F86529D4FFC01808185
S11327F09181A281B38147EA52E0BC01CD010E94DC
S1132800DA0F8091B1020E94710E51C01C821B82AA
S113281048C08B819C81880F991F880F991F8E5403
S11328209D4FFC0110821182128213828B819C8144
S1132830880F991F880F991F86529D4FFC011082A3
S11328401182128213828B819C81880F991F880FB9
S1132850991F8E549D4FFC0180819181A281B38187
S113286042E053E0BC01CD010E947C0E8B819C812F
S1132870880F991F880F991F86529D4FFC018081F4
S11328809181A281B38147EA52E0BC01CD010E944B
S1132890DA0F8B810E94710E8B819C8101969C833F
S11328A08B838B819C810A970CF4B3CF00000000CA
S11328B00F900F900F900F90DF91CF910895CF93C9
S11328C0DF9300D01F92CDB7DEB79A8389836B83E1
S11328D089819A81FC018081882F90E02B81222FAD
S11328E030E002C0959587952A95E2F78170992783
S11328F0892B11F481E001C080E00F900F900F90BC
S1132900DF91CF910895CF93DF9300D000D0CDB75E
S1132910DEB769837A838B839C8325E33AEF4EE8A1
S11329205CE369817A818B819C810E94BB19DC0103
S1132930CB01BC01CD010F900F900F900F90DF9150
S1132940CF9108950F931F93CF93DF93CDB7DEB745
S11329502F970FB6F894DEBF0FBECDBF6887798777
S11329608A879B875D874C873F872E876885798513
S11329708A859B850E946018DC01CB019F838E832E
S11329808E819F81CC01A0E0B0E0BC01CD010E940A
S11329909618DC01CB019C01AD01688579858A8597
S11329A09B850E940517DC01CB0189839A83AB8345
S11329B0BC838E819F812C853D854AE050E0B9011E
S11329C00E94801C1D8216C08D81882F90E02C856A
S11329D03D85820F931FFC0180818823B1F08D8196
S11329E0282F30E08E859F852817390774F48D8150
S11329F08F5F8D838D81882F90E02C853D85820F9C
S1132A00931FFC0180818823F9F68D81282F30E003
S1132A108E859F85281739070CF06AC08D8191E057
S1132A20980F9D83882F90E02C853D85820F931FFE
S1132A302EE2FC0120838D81282F30E08E859F8536
S1132A40281739070CF054C04AC020E030E040E2B7
S1132A5051E469817A818B819C810E94BB19DC01DC
S1132A60CB0189839A83AB83BC838D81882F90E0CB
S1132A702C853D858901080F191F69817A818B8115
S1132A809C810E946718DC01CB01805DF801808382
S1132A908D81882F90E02C853D85820F931FFC014A
S1132AA08081882F90E0C097092E000CAA0BBB0BE5
S1132AB0BC01CD010E949818DC01CB019C01AD0141
S1132AC069817A818B819C810E940517DC01CB018D
S1132AD089839A83AB83BC838D818F5F8D838D8142
S1132AE0282F30E08E859F85281739070CF4ADCF49
S1132AF000002F960FB6F894DEBF0FBECDBFDF9156
S1132B00CF911F910F9108958F929F92AF92BF9290
S1132B10CF92DF92EF92FF92CF93DF93CDB7DEB7E0
S1132B2064970FB6F894DEBF0FBECDBF8091B1029B
S1132B30882F90E0880F991F880F991F8E549D4FFE
S1132B40FC0180819181A281B38120915402309152
S1132B5055024091560250915702BC01CD010E948A
S1132B600517DC01CB01BC01CD010E948314DC01FB
S1132B70CB0189839A83AB83BC838091B102882F74
S1132B8090E0880F991F880F991F86529D4FFC0172
S1132B9080819181A281B381209167023091680282
S1132BA04091690250916A02BC01CD010E9405174F
S1132BB0DC01CB01BC01CD010E948314DC01CB01FB
S1132BC08D839E83AF83B88720E030E040E050E4FB
S1132BD069817A818B819C810E94EE17DC01CB0193
S1132BE0BC01CD010E94281A6B017C0120E030E079
S1132BF040E050E469817A818B819C810E94EE17C8
S1132C00DC01CB01BC01CD010E94281ADC01CB01FF
S1132C109C01AD01C701B6010E94BB19DC01CB01C7
S1132C206C017D018091540290915502A09156024D
S1132C30B0915702BC01CD010E948314DC01CB0189
S1132C40BC01CD010E94E9174B015C018091B102E6
S1132C50882F90E0880F991F880F991F8E549D4FDD
S1132C60FC0180819181A281B381BC01CD010E94CC
S1132C708314DC01CB01BC01CD010E94E917DC0106
S1132C80CB019C01AD01C501B4010E94BB19DC015B
S1132C90CB014C015D0120E030E040E050E46D8167
S1132CA07E818F8198850E94EE17DC01CB01BC01E7
S1132CB0CD010E94281ADC01CB019C01AD01C501A4
S1132CC0B4010E94BB19DC01CB014C015D0120E081
S1132CD030E040E050E46D817E818F8198850E94D0
S1132CE0EE17DC01CB01BC01CD010E94281ADC01E6
S1132CF0CB019C01AD01C501B4010E94BB19DC01EB
S1132D00CB019C01AD01C701B6010E940617DC018D
S1132D10CB0189879A87AB87BC8729853A854B8500
S1132D205C8560E070E080E89FE30E940517DC01A9
S1132D30CB01BC01CD010E94361A6B017C0189854F
S1132D409A85AB85BC85BC01CD010E94361ADC0195
S1132D50CB01A7019601BC01CD010E948517DC01BE
S1132D60CB019C01AD01BC01CD010E940617DC0121
S1132D70CB018D879E87AF87B88B8091A1029091FC
S1132D80A202A091A302B091A40220E030E04AE79D
S1132D9054E4BC01CD010E94EE17DC01CB0120E01C
S1132DA038E147EC55E4BC01CD010E940617DC0173
S1132DB0CB012D853E854F855889BC01CD010E94EC
S1132DC0BB19DC01CB01898B9A8BAB8BBC8B8989BA
S1132DD09A89AB89BC8926E030E04DE053E0BC0120
S1132DE0CD010E94A214000064960FB6F894DEBFD1
S1132DF00FBECDBFDF91CF91FF90EF90DF90CF90CA
S1132E00BF90AF909F908F9008955058BB27AA27EA
S1132E100E941D170C9460190E94271938F00E9413
S1132E202E1920F039F49F3F19F426F40C94FD1860
S1132E300EF4E095E7FB0C94F718E92F0E9485192E
S1132E4058F3BA17620773078407950720F079F4DB
S1132E50A6F50C94A7190EF4E0950B2EBA2FA02D0D
S1132E600B01B90190010C01CA01A0011124FF2733
S1132E70591B99F0593F50F4503E68F11A16F0402E
S1132E80A22F232F342F4427585FF3CF469537952D
S1132E902795A795F0405395C9F77EF41F16BA0BF2
S1132EA0620B730B840BBAF09150A1F0FF0FBB1FA0
S1132EB0661F771F881FC2F70EC0BA0F621F731FE9
S1132EC0841F48F4879577956795B795F7959E3F46
S1132ED008F0B0CF9395880F08F09927EE0F9795D7
S1132EE0879508950E94271960F080E891E009F41D
S1132EF09EEF0E942E1928F040E851E071F45EEF35
S1132F000CC00C94FD180C94A719E92FE0780E94CA
S1132F10851940F3092E052AB1F326173707480708
S1132F20590738F00E2E07F8E02569F0E025E06433
S1132F300AC0EF6307F8009407FADB01B9019D01A9
S1132F40DC01CA01AD01EF930E9405180E946019CB
S1132F500E94B5175F91552339F02BED3FE049E40A
S1132F6050FD49EC0C9406170895DF93DD27B92F23
S1132F70BF7740E85FE31616170648075B0718F4A7
S1132F80D92F0E94B3199F938F937F936F930E94BD
S1132F90761AE8E6F0E00E9400190E9460192F9169
S1132FA03F914F915F910E94CE19DD2351F09058CB
S1132FB0A2EA2AED3FE049EC5FE3D0785D270E9466
S1132FC01D17DF910C9460190E94D31808F481E056
S1132FD008950E943719E3950C9471190E94021800
S1132FE00C9460190E942E1958F00E94271940F081
S1132FF029F45F3F29F00C94F71851110C94A81987
S11330000C94FD180E94851968F39923B1F3552394
S113301091F3951B550BBB27AA27621773078407E7
S113302038F09F5F5F4F220F331F441FAA1FA9F37D
S113303035D00E2E3AF0E0E832D091505040E6956B
S1133040001CCAF72BD0FE2F29D0660F771F881FCC
S1133050BB1F261737074807AB07B0E809F0BB0BBF
S1133060802DBF01FF2793585F4F3AF09E3F5105D3
S113307078F00C94F7180C94A8195F3FE4F3983E89
S1133080D4F3869577956795B795F7959F5FC9F7BC
S1133090880F911D9695879597F90895E1E0660F3D
S11330A0771F881FBB1F621773078407BA0720F0B6
S11330B0621B730B840BBA0BEE1F88F7E09508951F
S11330C00E9467186894B1110C94A81908950E947D
S11330D08D1988F09F5798F0B92F9927B751B0F000
S11330E0E1F0660F771F881F991F1AF0BA95C9F788
S11330F014C0B13091F00E94A719B1E008950C9466
S1133100A719672F782F8827B85F39F0B93FCCF318
S1133110869577956795B395D9F73EF49095809504
S1133120709561957F4F8F4F9F4F0895E89409C024
S113313097FB3EF490958095709561957F4F8F4FE6
S11331409F4F9923A9F0F92F96E9BB279395F695FC
S1133150879577956795B795F111F8CFFAF4BB0F7A
S113316011F460FF1BC06F5F7F4F8F4F9F4F16C0DE
S1133170882311F096E911C0772321F09EE8872F68
S1133180762F05C0662371F096E8862F70E060E024
S11331902AF09A95660F771F881FDAF7880F96959D
S11331A0879597F90895990F0008550FAA0BE0E841
S11331B0FEEF16161706E807F907C0F012161306F5
S11331C0E407F50798F0621B730B840B950B39F435
S11331D00A2661F0232B242B252B21F408950A269B
S11331E009F4A140A6958FEF811D811D089597F9DB
S11331F09F6780E870E060E008959FEF80EC089599
S1133200DF93CF931F930F93FF92EF92DF927B0193
S11332108C01689406C0DA2EEF010E94CE19FE01DB
S1133220E894A5912591359145915591A6F3EF0127
S11332300E941D17FE019701A801DA9469F7DF9037
S1133240EF90FF900F911F91CF91DF91089500248B
S11332500A941616170618060906089500240A94F7
S1133260121613061406050608950C94FD180E9400
S11332708D19D8F3E894E0E0BB279F57F0F02AEDCE
S11332803FE049EC06C0EE0FBB0F661F771F881F97
S113329028F0B23A62077307840728F0B25A620B27
S11332A0730B840BE3959A9572F7803830F49A95F2
S11332B0BB0F661F771F881FD2F790480C947C1AA7
S11332C0092E0394000C11F4882352F0BB0F40F430
S11332D0BF2B11F460FF04C06F5F7F4F8F4F9F4F70
S11332E00895EF93E0FF07C0A2EA2AED3FE049EC1E
S11332F05FEB0E941D170E9460190F90039401FC5C
S11333009058E5E9F0E00C948F1A57FD9058440F5B
S1133310551F59F05F3F71F04795880F97FB991F30
S113332061F09F3F79F087950895121613061406ED
S1133330551FF2CF4695F1DF08C01616170618067A
S1133340991FF1CF86957105610508940895E89455
S1133350BB2766277727CB0197F908950E94D318D6
S113336008F48FEF08959B01AC0160E070E080E801
S11333709FE30C94EE170E94CE190C9460190E94DE
S1133380271938F00E942E1920F0952311F00C947F
S1133390F7180C94FD1811240C94A8190E9485198F
S11333A070F3959FC1F3950F50E0551F629FF00194
S11333B0729FBB27F00DB11D639FAA27F00DB11DAD
S11333C0AA1F649F6627B00DA11D661F829F222736
S11333D0B00DA11D621F739FB00DA11D621F839FBD
S11333E0A00D611D221F749F3327A00D611D231F93
S11333F0849F600D211D822F762F6A2F11249F57E1
S113340050409AF0F1F088234AF0EE0FFF1FBB1FE3
S1133410661F771F881F91505040A9F79E3F5105A2
S113342080F00C94F7180C94A8195F3FE4F3983ECD
S1133430D4F3869577956795B795F795E7959F5F4C
S1133440C1F7FE2B880F911D9695879597F90895DE
S11334509F930E9437190F9007FCEE5F0C9471192B
S113346019F416F40C94FD180C947A1A0E948D1910
S1133470B8F39923C9F3B6F39F57550B87FF0E94FE
S1133480881A0024A0E640EA900180585695979542
S113349028F4805C660F771F881F20F026173707F3
S11334A0480730F4621B730B840B202931294A2B03
S11334B0A69517940794202531254A2758F7660FB7
S11334C0771F881F20F026173707480730F4620B50
S11334D0730B840B200D311D411DA09581F7B9019B
S11334E0842F9158880F9695879508959B01AC0178
S11334F00C94BB199F3F31F0915020F48795779538
S11335006795B795880F911D9695879597F90895B6
S113351091505040660F771F881FD2F708959F93EC
S11335208F937F936F93FF93EF939B01AC010E9462
S1133530BB19EF91FF910E9400192F913F914F9178
S11335405F910C94BB195F9A00C000C05F98089506
S1133550CF93C82F662311F0299A01C0299828987F
S1133560569A559A549A539A5B985C985D985E98CB
S1133570C7FD5B9AC6FD5C9AC5FD5D9AC4FD5E9A63
S11335800E94A31A5B985C985D985E98C3FD5B9A51
S1133590C2FD5C9AC1FD5D9AC0FD5E9A0E94A31AA9
S11335A05E9A5D9A5C9A5B9ACF9108952998289ABD
S11335B056985598549853985F9A00C000C04E9BF3
S11335C002C080E101C080E04D9980624C99806422
S11335D04B9980685F9800C000C05F9A00C000C02B
S11335E04E9981604D9982604C9984604B998860B2
S11335F05F9808950E94D61A87FDFCCF85E08A95CE
S1133600F1F700000C94D61ACF93C82F0E94FA1A2F
S113361060E08C2FCF910C94A81A611102C08058DD
S113362009C0613011F4805405C0623011F48C5625
S113363001C08C520C94041B81E00C94041BCF93A6
S1133640C82F0E94FA1ACA30A1F4843148F090ECD1
S1133650980F943138F084518C3230F080E005C0FA
S113366080E403C084E101C084E58058CF910C94C8
S1133670041B61E08C2FCF910C94A81ACF93C82F10
S1133680219A209A579A569A559A549A539A8FE7A0
S11336909EE30197F1F700C000005D9A5E9A0E94D4
S11336A0A31A87E893E10197F1F700C000000E9494
S11336B0A31A95E59A95F1F700000E94A31A85E5EF
S11336C08A95F1F700005E980E94A31A95E59A95F1
S11336D0F1F7000088E20E94041B88E00E94041BAA
S11336E00E941C1B86E00E94041B8C2FCF910C941B
S11336F0041B1F920F920FB60F9211242F938F93D6
S11337009F93EF93FF938091C0009091C6008C71BA
S1133710E0910702EF5FEF7120910602E21739F0A2
S1133720E0930702F0E0E65FFD4F908301C082E082
S113373090910502892B80930502FF91EF919F914F
S11337408F912F910F900FBE0F901F9018951F927D
S11337500F920FB60F9211248F939F93EF93FF93C1
S11337609091090280910802981769F0E09108028B
S1133770EF5FEF71E0930802F0E0E65DFD4F8081BA
S11337808093C60005C08091C1008F7D8093C100E5
S1133790FF91EF919F918F910F900FBE0F901F900B
S11337A018951092090210920802109207021092C2
S11337B0060297FF03C022E02093C0009078909304
S11337C0C5008093C40088E98093C10086E080939B
S11337D0C200089590910702809106029817A9F0FB
S11337E0909106029F5F9F71E92FF0E0E65FFD4F25
S11337F0208180910502909306021092050290E0C8
S1133800982F8827820F911D089580E091E00895F4
S113381097FB072E16F4009407D077FD09D00E9479
S1133820581C07FC05D03EF4909581959F4F089550
S1133830709561957F4F0895A1E21A2EAA1BBB1BB8
S1133840FD010DC0AA1FBB1FEE1FFF1FA217B30768
S1133850E407F50720F0A21BB30BE40BF50B661F7E
S1133860771F881F991F1A9469F760957095809542
S113387090959B01AC01BD01CF010895A29FB001B9
S1133880B39FC001A39F700D811D1124911DB29F90
S1133890700D811D1124911D08950E943E1CA59F49
S11338A0900DB49F900DA49F800D911D1124089537
S11338B0AA1BBB1B51E107C0AA1FBB1FA617B70752
S11338C010F0A61BB70B881F991F5A95A9F780956E
S11338D09095BC01CD010895662777270C94B01C00
S11338E0DC0101C06D9341505040E0F70895FB01A5
S11338F0DC018D91019080190110D9F3990B089581
S11339004532510520F4423010F00C948B1CFB011D
S11339101082CB010895BB274A3031F4992322F455
S1133920BDE2909581959F4F0C94971CBB27FB019A
S11339305527AA27880F991FAA1FA41710F0A41BA4
S113394083955051B9F7A05DAA3308F0A95DA193FE
S1133950009779F7B111B1931192CB010C941F1E0A
S1133960A0E0B0E0E6EBFCE10C94381EEC016B0146
S11339706115710519F0FB01918380837E01FFEFCE
S1133980EF1AFF0A0881802F90E00E94FE1D892B08
S113399011F0E701F3CF0D3239F47E0182E0E80E35
S11339A0F11C098111E008C00B3229F47E0192E078
S11339B0E90EF11C098110E0E701219743E050E092
S11339C06CEB70E0CE010E94071E892BC1F4239694
S11339D045E050E067EB70E0CE010E94071E892BA2
S11339E009F42596C114D10419F0F601D183C083DA
S11339F01111F6C060E070E080E89FE7FAC043E090
S1133A0050E064EB70E0CE010E94071E892B59F44C
S1133A10C114D10409F4E9C0F2E0EF0EF11CF6017F
S1133A20F182E082E2C020E030E0A901C0E0D0E011
S1133A30F70180EDA82EA00E89E08A1530F1912FB0
S1133A409260B92E812F887012FF04C0811124C0A6
S1133A50219622C081112197A5E0B0E00E944D1C5F
S1133A60DC01CB01880F991FAA1FBB1F9C01AD016C
S1133A702A0D311D411D511D283989E93807480790
S1133A8089E1580748F0166006C09EEFA9120AC0E3
S1133A9013FD40C01860B12E8FEFE81AF80A0081B8
S1133AA01B2DC6CF802F8F7D8534A1F580818D326B
S1133AB011F4106106C08B3221F0319661E070E0A0
S1133AC004C08181329662E070E080538A3018F03D
S1133AD0E61BF70B1FC060E070E060389CE07907DC
S1133AE05CF4DB01AA0FBB1FAA0FBB1F6A0F7B1F6D
S1133AF0660F771F680F711D3196DF0111978C9146
S1133B0080538A3050F314FF03C071956195710995
S1133B10C60FD71F11FF08C0C114D10429F0CF016B
S1133B200197F60191838083CA01B9010E94961816
S1133B30212F2370233019F04B015C0106C04B0187
S1133B405C01B7FAB094B7F8B09420E030E0A90172
S1133B50C501B4010E94E417882309F43EC0D7FFCD
S1133B6006C0D195C195D10903ED10E002C00BEE5A
S1133B7010E06801F8E1CF1AD10890E2E92EF12CA7
S1133B80CE15DF0574F0F8012591359145915491D6
S1133B90C501B4010E94BB194B015C01CE19DF09B8
S1133BA0EFCF04501109F594E7940C151D0541F766
S1133BB08A2D880F8B2D881F8F3F49F020E030E03D
S1133BC0A901C501B4010E94E417811106C082E273
S1133BD090E09093140380931303C501B40109C0CA
S1133BE060E070E080E89FEF04C060E070E080EC8B
S1133BF09FE7CDB7DEB7ECE00C94541E91110C9402
S1133C002F1E803219F089508550C8F70895FB01A2
S1133C10DC014150504088F08D9181341CF08B358B
S1133C200CF4805E659161341CF06B350CF4605EBD
S1133C30861B611171F3990B0895881BFCCFDC017D
S1133C40FC01672F71917723E1F7329704C07C91CF
S1133C506D9370836291AE17BF07C8F308959927D7
S1133C60882708952F923F924F925F926F927F928E
S1133C708F929F92AF92BF92CF92DF92EF92FF9278
S1133C800F931F93CF93DF93CDB7DEB7CA1BDB0B24
S1133C900FB6F894DEBF0FBECDBF09942A883988C9
S1133CA048885F846E847D848C849B84AA84B984D0
S1133CB0C884DF80EE80FD800C811B81AA81B981DC
S1133CC0CE0FD11D0FB6F894DEBF0FBECDBFED01F0
S1093CD00895F894FFCFF3
S1133CD62D202D202D202D207E7E7E7E202D202D14
S1133CE6202D202D002D202D202D20576179466969
S1133CF66E6458202D202D202D0020204E61762024
S1133D06696E6974206661696C7572652020004E5F
S1133D166176206D6F64756C65206F6666207379B5
S1133D266E632100416371756972696E6720536120
S1133D3674656C6C697465730047657474696E6741
S1133D462050565420536F6C7574696F6E0020535F
S1133D5641564500434C4541520052455345540093
S1133D664572726F720020202020202020202020FF
S1133D762020202020202020202000475047474193
S10B3D860047505654470000A9
S9030000FC
